{"abi":[{"type":"constructor","inputs":[],"stateMutability":"nonpayable"},{"type":"receive","stateMutability":"payable"},{"type":"function","name":"FEE_BPS","inputs":[],"outputs":[{"name":"","type":"uint256","internalType":"uint256"}],"stateMutability":"view"},{"type":"function","name":"TIMEOUT","inputs":[],"outputs":[{"name":"","type":"uint256","internalType":"uint256"}],"stateMutability":"view"},{"type":"function","name":"cancelMatch","inputs":[{"name":"_matchId","type":"uint256","internalType":"uint256"}],"outputs":[],"stateMutability":"nonpayable"},{"type":"function","name":"createMatch","inputs":[{"name":"_referee","type":"address","internalType":"address"},{"name":"_guess","type":"uint256","internalType":"uint256"}],"outputs":[{"name":"","type":"uint256","internalType":"uint256"}],"stateMutability":"payable"},{"type":"function","name":"emergencyClaim","inputs":[{"name":"_matchId","type":"uint256","internalType":"uint256"}],"outputs":[],"stateMutability":"nonpayable"},{"type":"function","name":"joinMatch","inputs":[{"name":"_matchId","type":"uint256","internalType":"uint256"},{"name":"_guess","type":"uint256","internalType":"uint256"}],"outputs":[],"stateMutability":"payable"},{"type":"function","name":"matches","inputs":[{"name":"","type":"uint256","internalType":"uint256"}],"outputs":[{"name":"id","type":"uint256","internalType":"uint256"},{"name":"creator","type":"address","internalType":"address"},{"name":"opponent","type":"address","internalType":"address"},{"name":"stake","type":"uint256","internalType":"uint256"},{"name":"referee","type":"address","internalType":"address"},{"name":"status","type":"uint8","internalType":"enum Utils.MatchStatus"},{"name":"winner","type":"address","internalType":"address"},{"name":"lastUpdate","type":"uint256","internalType":"uint256"},{"name":"creatorGuess","type":"uint256","internalType":"uint256"},{"name":"opponentGuess","type":"uint256","internalType":"uint256"}],"stateMutability":"view"},{"type":"function","name":"nextMatchId","inputs":[],"outputs":[{"name":"","type":"uint256","internalType":"uint256"}],"stateMutability":"view"},{"type":"function","name":"owner","inputs":[],"outputs":[{"name":"","type":"address","internalType":"address"}],"stateMutability":"view"},{"type":"function","name":"pendingWithdrawals","inputs":[{"name":"","type":"address","internalType":"address"}],"outputs":[{"name":"","type":"uint256","internalType":"uint256"}],"stateMutability":"view"},{"type":"function","name":"settleMatch","inputs":[{"name":"_matchId","type":"uint256","internalType":"uint256"},{"name":"_winner","type":"address","internalType":"address"},{"name":"_targetNumber","type":"uint256","internalType":"uint256"}],"outputs":[],"stateMutability":"nonpayable"},{"type":"function","name":"totalFees","inputs":[],"outputs":[{"name":"","type":"uint256","internalType":"uint256"}],"stateMutability":"view"},{"type":"function","name":"withdraw","inputs":[],"outputs":[],"stateMutability":"nonpayable"},{"type":"function","name":"withdrawFees","inputs":[],"outputs":[],"stateMutability":"nonpayable"},{"type":"event","name":"EmergencyClaim","inputs":[{"name":"matchId","type":"uint256","indexed":true,"internalType":"uint256"},{"name":"creator","type":"address","indexed":false,"internalType":"address"},{"name":"opponent","type":"address","indexed":false,"internalType":"address"}],"anonymous":false},{"type":"event","name":"FeesWithdrawn","inputs":[{"name":"owner","type":"address","indexed":true,"internalType":"address"},{"name":"amount","type":"uint256","indexed":false,"internalType":"uint256"}],"anonymous":false},{"type":"event","name":"MatchCancelled","inputs":[{"name":"matchId","type":"uint256","indexed":true,"internalType":"uint256"}],"anonymous":false},{"type":"event","name":"MatchCreated","inputs":[{"name":"matchId","type":"uint256","indexed":true,"internalType":"uint256"},{"name":"creator","type":"address","indexed":false,"internalType":"address"},{"name":"stake","type":"uint256","indexed":false,"internalType":"uint256"},{"name":"referee","type":"address","indexed":false,"internalType":"address"},{"name":"guess","type":"uint256","indexed":false,"internalType":"uint256"}],"anonymous":false},{"type":"event","name":"MatchJoined","inputs":[{"name":"matchId","type":"uint256","indexed":true,"internalType":"uint256"},{"name":"opponent","type":"address","indexed":false,"internalType":"address"},{"name":"guess","type":"uint256","indexed":false,"internalType":"uint256"}],"anonymous":false},{"type":"event","name":"MatchSettled","inputs":[{"name":"matchId","type":"uint256","indexed":true,"internalType":"uint256"},{"name":"winner","type":"address","indexed":false,"internalType":"address"},{"name":"prize","type":"uint256","indexed":false,"internalType":"uint256"},{"name":"fee","type":"uint256","indexed":false,"internalType":"uint256"},{"name":"targetNumber","type":"uint256","indexed":false,"internalType":"uint256"}],"anonymous":false},{"type":"event","name":"WinningsWithdrawn","inputs":[{"name":"player","type":"address","indexed":true,"internalType":"address"},{"name":"amount","type":"uint256","indexed":false,"internalType":"uint256"}],"anonymous":false},{"type":"error","name":"CANNOT_JOIN_OWN_MATCH","inputs":[]},{"type":"error","name":"INCORRECT_STAKE","inputs":[]},{"type":"error","name":"INVALID_GUESS","inputs":[]},{"type":"error","name":"INVALID_REFEREE","inputs":[]},{"type":"error","name":"MATCH_NOT_ACTIVE","inputs":[]},{"type":"error","name":"MATCH_NOT_PENDING","inputs":[]},{"type":"error","name":"MUST_BE_GREATER_THAN_ZERO","inputs":[]},{"type":"error","name":"NOTHING_TO_WITHDRAW","inputs":[]},{"type":"error","name":"ONLY_CREATOR_CAN_CANCEL","inputs":[]},{"type":"error","name":"ONLY_OWNER","inputs":[]},{"type":"error","name":"ONLY_PENDING_MATCHES_CAN_BE_CANCELLED","inputs":[]},{"type":"error","name":"ONLY_REFEREE_CAN_SETTLE","inputs":[]},{"type":"error","name":"REENTRANCY","inputs":[]},{"type":"error","name":"REFUND_FAILED","inputs":[]},{"type":"error","name":"TIMEOUT_NOT_REACHED","inputs":[]},{"type":"error","name":"TRANSFER_FAILED","inputs":[]},{"type":"error","name":"WINNER_MUST_BE_PARTICIPANT","inputs":[]}],"bytecode":{"object":"0x6080604052348015600e575f5ffd5b50335f5f6101000a81548173ffffffffffffffffffffffffffffffffffffffff021916908373ffffffffffffffffffffffffffffffffffffffff160217905550611dc08061005b5f395ff3fe6080604052600436106100e0575f3560e01c80638da5cb5b1161007e578063c5adf7c911610058578063c5adf7c914610276578063d02c8cdf146102a0578063f3f43703146102c8578063f56f48f214610304576100e7565b80638da5cb5b14610206578063a221d26714610230578063bf333f2c1461024c576100e7565b80633ccfd60b116100ba5780633ccfd60b1461016d578063476343ee146101835780634768d4ef146101995780638b200460146101de576100e7565b806301504adf146100eb5780630ee43b471461011357806313114a9d14610143576100e7565b366100e757005b5f5ffd5b3480156100f6575f5ffd5b50610111600480360381019061010c9190611824565b61032e565b005b61012d600480360381019061012891906118a9565b61064e565b60405161013a91906118f6565b60405180910390f35b34801561014e575f5ffd5b506101576109d1565b60405161016491906118f6565b60405180910390f35b348015610178575f5ffd5b506101816109d7565b005b34801561018e575f5ffd5b50610197610bfd565b005b3480156101a4575f5ffd5b506101bf60048036038101906101ba9190611824565b610e72565b6040516101d59a99989796959493929190611991565b60405180910390f35b3480156101e9575f5ffd5b5061020460048036038101906101ff9190611a2b565b610f4b565b005b348015610211575f5ffd5b5061021a6112a5565b6040516102279190611a7b565b60405180910390f35b61024a60048036038101906102459190611a94565b6112c9565b005b348015610257575f5ffd5b50610260611515565b60405161026d91906118f6565b60405180910390f35b348015610281575f5ffd5b5061028a61151a565b60405161029791906118f6565b60405180910390f35b3480156102ab575f5ffd5b506102c660048036038101906102c19190611824565b611520565b005b3480156102d3575f5ffd5b506102ee60048036038101906102e99190611ad2565b6117d1565b6040516102fb91906118f6565b60405180910390f35b34801561030f575f5ffd5b506103186117e6565b60405161032591906118f6565b60405180910390f35b60055f9054906101000a900460ff1615610374576040517fad2ce74900000000000000000000000000000000000000000000000000000000815260040160405180910390fd5b600160055f6101000a81548160ff0219169083151502179055505f60025f8381526020019081526020015f209050600160038111156103b6576103b561191e565b5b8160040160149054906101000a900460ff1660038111156103da576103d961191e565b5b14610411576040517f584e106a00000000000000000000000000000000000000000000000000000000815260040160405180910390fd5b6201518081600601546104249190611b2a565b42101561045d576040517f359eead100000000000000000000000000000000000000000000000000000000815260040160405180910390fd5b60038160040160146101000a81548160ff021916908360038111156104855761048461191e565b5b02179055505f816003015490505f826001015f9054906101000a900473ffffffffffffffffffffffffffffffffffffffff1690505f836002015f9054906101000a900473ffffffffffffffffffffffffffffffffffffffff1690505f8273ffffffffffffffffffffffffffffffffffffffff168460405161050590611b8a565b5f6040518083038185875af1925050503d805f811461053f576040519150601f19603f3d011682016040523d82523d5f602084013e610544565b606091505b505090505f8273ffffffffffffffffffffffffffffffffffffffff168560405161056d90611b8a565b5f6040518083038185875af1925050503d805f81146105a7576040519150601f19603f3d011682016040523d82523d5f602084013e6105ac565b606091505b505090508115806105bb575080155b156105f2576040517f9a2dc56100000000000000000000000000000000000000000000000000000000815260040160405180910390fd5b867fd629f7312f086a3ff890e8cdf24511e83fb91e0352ce87e29061b8a0003bcf3d8585604051610624929190611b9e565b60405180910390a25050505050505f60055f6101000a81548160ff02191690831515021790555050565b5f5f3403610688576040517fd12c471300000000000000000000000000000000000000000000000000000000815260040160405180910390fd5b5f73ffffffffffffffffffffffffffffffffffffffff168373ffffffffffffffffffffffffffffffffffffffff16036106ed576040517fb318abff00000000000000000000000000000000000000000000000000000000815260040160405180910390fd5b5f8214806106fb5750606482115b15610732576040517ff9cbc2db00000000000000000000000000000000000000000000000000000000815260040160405180910390fd5b5f60015f81548092919061074590611bc5565b9190505590506040518061014001604052808281526020013373ffffffffffffffffffffffffffffffffffffffff1681526020015f73ffffffffffffffffffffffffffffffffffffffff1681526020013481526020018573ffffffffffffffffffffffffffffffffffffffff1681526020015f60038111156107ca576107c961191e565b5b81526020015f73ffffffffffffffffffffffffffffffffffffffff1681526020014281526020018481526020015f81525060025f8381526020019081526020015f205f820151815f01556020820151816001015f6101000a81548173ffffffffffffffffffffffffffffffffffffffff021916908373ffffffffffffffffffffffffffffffffffffffff1602179055506040820151816002015f6101000a81548173ffffffffffffffffffffffffffffffffffffffff021916908373ffffffffffffffffffffffffffffffffffffffff160217905550606082015181600301556080820151816004015f6101000a81548173ffffffffffffffffffffffffffffffffffffffff021916908373ffffffffffffffffffffffffffffffffffffffff16021790555060a08201518160040160146101000a81548160ff0219169083600381111561091b5761091a61191e565b5b021790555060c0820151816005015f6101000a81548173ffffffffffffffffffffffffffffffffffffffff021916908373ffffffffffffffffffffffffffffffffffffffff16021790555060e0820151816006015561010082015181600701556101208201518160080155905050807f4d1cfa4238ab5c67a552114c61757101e5dec96a2a66f74b1b3c10ceb7d982d5333487876040516109bf9493929190611c0c565b60405180910390a28091505092915050565b60035481565b60055f9054906101000a900460ff1615610a1d576040517fad2ce74900000000000000000000000000000000000000000000000000000000815260040160405180910390fd5b600160055f6101000a81548160ff0219169083151502179055505f60045f3373ffffffffffffffffffffffffffffffffffffffff1673ffffffffffffffffffffffffffffffffffffffff1681526020019081526020015f205490505f8103610ab1576040517f6c01d14c00000000000000000000000000000000000000000000000000000000815260040160405180910390fd5b5f60045f3373ffffffffffffffffffffffffffffffffffffffff1673ffffffffffffffffffffffffffffffffffffffff1681526020019081526020015f20819055505f3373ffffffffffffffffffffffffffffffffffffffff1682604051610b1890611b8a565b5f6040518083038185875af1925050503d805f8114610b52576040519150601f19603f3d011682016040523d82523d5f602084013e610b57565b606091505b5050905080610b92576040517f3f4ab80e00000000000000000000000000000000000000000000000000000000815260040160405180910390fd5b3373ffffffffffffffffffffffffffffffffffffffff167f24215bbaf0832fa4d6ffef16dee3971d8b714921fef3ad63f793d578983c6dc283604051610bd891906118f6565b60405180910390a250505f60055f6101000a81548160ff021916908315150217905550565b5f5f9054906101000a900473ffffffffffffffffffffffffffffffffffffffff1673ffffffffffffffffffffffffffffffffffffffff163373ffffffffffffffffffffffffffffffffffffffff1614610c82576040517fd238ed5900000000000000000000000000000000000000000000000000000000815260040160405180910390fd5b60055f9054906101000a900460ff1615610cc8576040517fad2ce74900000000000000000000000000000000000000000000000000000000815260040160405180910390fd5b600160055f6101000a81548160ff0219169083151502179055505f60035490505f8103610d21576040517f6c01d14c00000000000000000000000000000000000000000000000000000000815260040160405180910390fd5b5f6003819055505f5f5f9054906101000a900473ffffffffffffffffffffffffffffffffffffffff1673ffffffffffffffffffffffffffffffffffffffff1682604051610d6d90611b8a565b5f6040518083038185875af1925050503d805f8114610da7576040519150601f19603f3d011682016040523d82523d5f602084013e610dac565b606091505b5050905080610de7576040517f3f4ab80e00000000000000000000000000000000000000000000000000000000815260040160405180910390fd5b5f5f9054906101000a900473ffffffffffffffffffffffffffffffffffffffff1673ffffffffffffffffffffffffffffffffffffffff167fc0819c13be868895eb93e40eaceb96de976442fa1d404e5c55f14bb65a8c489a83604051610e4d91906118f6565b60405180910390a250505f60055f6101000a81548160ff021916908315150217905550565b6002602052805f5260405f205f91509050805f015490806001015f9054906101000a900473ffffffffffffffffffffffffffffffffffffffff1690806002015f9054906101000a900473ffffffffffffffffffffffffffffffffffffffff1690806003015490806004015f9054906101000a900473ffffffffffffffffffffffffffffffffffffffff16908060040160149054906101000a900460ff1690806005015f9054906101000a900473ffffffffffffffffffffffffffffffffffffffff1690806006015490806007015490806008015490508a565b5f60025f8581526020019081526020015f20905060016003811115610f7357610f7261191e565b5b8160040160149054906101000a900460ff166003811115610f9757610f9661191e565b5b14610fce576040517f584e106a00000000000000000000000000000000000000000000000000000000815260040160405180910390fd5b806004015f9054906101000a900473ffffffffffffffffffffffffffffffffffffffff1673ffffffffffffffffffffffffffffffffffffffff163373ffffffffffffffffffffffffffffffffffffffff1614611056576040517fd73e308800000000000000000000000000000000000000000000000000000000815260040160405180910390fd5b806001015f9054906101000a900473ffffffffffffffffffffffffffffffffffffffff1673ffffffffffffffffffffffffffffffffffffffff168373ffffffffffffffffffffffffffffffffffffffff16141580156111045750806002015f9054906101000a900473ffffffffffffffffffffffffffffffffffffffff1673ffffffffffffffffffffffffffffffffffffffff168373ffffffffffffffffffffffffffffffffffffffff1614155b1561113b576040517fadfb29f300000000000000000000000000000000000000000000000000000000815260040160405180910390fd5b60028160040160146101000a81548160ff021916908360038111156111635761116261191e565b5b021790555082816005015f6101000a81548173ffffffffffffffffffffffffffffffffffffffff021916908373ffffffffffffffffffffffffffffffffffffffff1602179055504281600601819055505f600282600301546111c59190611c4f565b90505f61271060fa836111d89190611c4f565b6111e29190611cbd565b90505f81836111f19190611ced565b90508160035f8282546112049190611b2a565b925050819055508060045f8873ffffffffffffffffffffffffffffffffffffffff1673ffffffffffffffffffffffffffffffffffffffff1681526020019081526020015f205f8282546112579190611b2a565b92505081905550867f75e2cdfe1f471809c44494c67c6ea8a7740906853f2bdb774ecdbb39f5ce0812878385896040516112949493929190611d20565b60405180910390a250505050505050565b5f5f9054906101000a900473ffffffffffffffffffffffffffffffffffffffff1681565b5f60025f8481526020019081526020015f2090505f60038111156112f0576112ef61191e565b5b8160040160149054906101000a900460ff1660038111156113145761131361191e565b5b1461134b576040517f732bcf8100000000000000000000000000000000000000000000000000000000815260040160405180910390fd5b80600301543414611388576040517ff7e8b23f00000000000000000000000000000000000000000000000000000000815260040160405180910390fd5b806001015f9054906101000a900473ffffffffffffffffffffffffffffffffffffffff1673ffffffffffffffffffffffffffffffffffffffff163373ffffffffffffffffffffffffffffffffffffffff1603611410576040517fffd7d13d00000000000000000000000000000000000000000000000000000000815260040160405180910390fd5b5f82148061141e5750606482115b15611455576040517ff9cbc2db00000000000000000000000000000000000000000000000000000000815260040160405180910390fd5b33816002015f6101000a81548173ffffffffffffffffffffffffffffffffffffffff021916908373ffffffffffffffffffffffffffffffffffffffff16021790555081816008018190555060018160040160146101000a81548160ff021916908360038111156114c8576114c761191e565b5b0217905550428160060181905550827fbac6c1f65fa2e0f78a4e7dead8b72a284ff81ba7c397e22f9cf0e7ed2f7efd1a3384604051611508929190611d63565b60405180910390a2505050565b60fa81565b60015481565b60055f9054906101000a900460ff1615611566576040517fad2ce74900000000000000000000000000000000000000000000000000000000815260040160405180910390fd5b600160055f6101000a81548160ff0219169083151502179055505f60025f8381526020019081526020015f2090505f60038111156115a7576115a661191e565b5b8160040160149054906101000a900460ff1660038111156115cb576115ca61191e565b5b14611602576040517f71bbe61e00000000000000000000000000000000000000000000000000000000815260040160405180910390fd5b806001015f9054906101000a900473ffffffffffffffffffffffffffffffffffffffff1673ffffffffffffffffffffffffffffffffffffffff163373ffffffffffffffffffffffffffffffffffffffff161461168a576040517fea5a01e400000000000000000000000000000000000000000000000000000000815260040160405180910390fd5b60038160040160146101000a81548160ff021916908360038111156116b2576116b161191e565b5b02179055504281600601819055505f816001015f9054906101000a900473ffffffffffffffffffffffffffffffffffffffff1673ffffffffffffffffffffffffffffffffffffffff16826003015460405161170c90611b8a565b5f6040518083038185875af1925050503d805f8114611746576040519150601f19603f3d011682016040523d82523d5f602084013e61174b565b606091505b5050905080611786576040517f9a2dc56100000000000000000000000000000000000000000000000000000000815260040160405180910390fd5b827f700135b4fe8746e2d2c85a9baa43c62887740aebfeb3a439f71a083fe5d5675960405160405180910390a250505f60055f6101000a81548160ff02191690831515021790555050565b6004602052805f5260405f205f915090505481565b6201518081565b5f5ffd5b5f819050919050565b611803816117f1565b811461180d575f5ffd5b50565b5f8135905061181e816117fa565b92915050565b5f60208284031215611839576118386117ed565b5b5f61184684828501611810565b91505092915050565b5f73ffffffffffffffffffffffffffffffffffffffff82169050919050565b5f6118788261184f565b9050919050565b6118888161186e565b8114611892575f5ffd5b50565b5f813590506118a38161187f565b92915050565b5f5f604083850312156118bf576118be6117ed565b5b5f6118cc85828601611895565b92505060206118dd85828601611810565b9150509250929050565b6118f0816117f1565b82525050565b5f6020820190506119095f8301846118e7565b92915050565b6119188161186e565b82525050565b7f4e487b71000000000000000000000000000000000000000000000000000000005f52602160045260245ffd5b6004811061195c5761195b61191e565b5b50565b5f81905061196c8261194b565b919050565b5f61197b8261195f565b9050919050565b61198b81611971565b82525050565b5f610140820190506119a55f83018d6118e7565b6119b2602083018c61190f565b6119bf604083018b61190f565b6119cc606083018a6118e7565b6119d9608083018961190f565b6119e660a0830188611982565b6119f360c083018761190f565b611a0060e08301866118e7565b611a0e6101008301856118e7565b611a1c6101208301846118e7565b9b9a5050505050505050505050565b5f5f5f60608486031215611a4257611a416117ed565b5b5f611a4f86828701611810565b9350506020611a6086828701611895565b9250506040611a7186828701611810565b9150509250925092565b5f602082019050611a8e5f83018461190f565b92915050565b5f5f60408385031215611aaa57611aa96117ed565b5b5f611ab785828601611810565b9250506020611ac885828601611810565b9150509250929050565b5f60208284031215611ae757611ae66117ed565b5b5f611af484828501611895565b91505092915050565b7f4e487b71000000000000000000000000000000000000000000000000000000005f52601160045260245ffd5b5f611b34826117f1565b9150611b3f836117f1565b9250828201905080821115611b5757611b56611afd565b5b92915050565b5f81905092915050565b50565b5f611b755f83611b5d565b9150611b8082611b67565b5f82019050919050565b5f611b9482611b6a565b9150819050919050565b5f604082019050611bb15f83018561190f565b611bbe602083018461190f565b9392505050565b5f611bcf826117f1565b91507fffffffffffffffffffffffffffffffffffffffffffffffffffffffffffffffff8203611c0157611c00611afd565b5b600182019050919050565b5f608082019050611c1f5f83018761190f565b611c2c60208301866118e7565b611c39604083018561190f565b611c4660608301846118e7565b95945050505050565b5f611c59826117f1565b9150611c64836117f1565b9250828202611c72816117f1565b91508282048414831517611c8957611c88611afd565b5b5092915050565b7f4e487b71000000000000000000000000000000000000000000000000000000005f52601260045260245ffd5b5f611cc7826117f1565b9150611cd2836117f1565b925082611ce257611ce1611c90565b5b828204905092915050565b5f611cf7826117f1565b9150611d02836117f1565b9250828203905081811115611d1a57611d19611afd565b5b92915050565b5f608082019050611d335f83018761190f565b611d4060208301866118e7565b611d4d60408301856118e7565b611d5a60608301846118e7565b95945050505050565b5f604082019050611d765f83018561190f565b611d8360208301846118e7565b939250505056fea2646970667358221220eb5c8b02160a987d23e80cb8c43553e5f18ec3ef9d5b0cc9ba829ba5c7e0573764736f6c63430008210033","linkReferences":{}},"methodIdentifiers":{"FEE_BPS()":"bf333f2c","TIMEOUT()":"f56f48f2","cancelMatch(uint256)":"d02c8cdf","createMatch(address,uint256)":"0ee43b47","emergencyClaim(uint256)":"01504adf","joinMatch(uint256,uint256)":"a221d267","matches(uint256)":"4768d4ef","nextMatchId()":"c5adf7c9","owner()":"8da5cb5b","pendingWithdrawals(address)":"f3f43703","settleMatch(uint256,address,uint256)":"8b200460","totalFees()":"13114a9d","withdraw()":"3ccfd60b","withdrawFees()":"476343ee"},"id":19}