{"abi":[{"type":"constructor","inputs":[{"name":"_referee","type":"address","internalType":"address"}],"stateMutability":"nonpayable"},{"type":"receive","stateMutability":"payable"},{"type":"function","name":"FEE_BPS","inputs":[],"outputs":[{"name":"","type":"uint256","internalType":"uint256"}],"stateMutability":"view"},{"type":"function","name":"TIMEOUT","inputs":[],"outputs":[{"name":"","type":"uint256","internalType":"uint256"}],"stateMutability":"view"},{"type":"function","name":"cancelMatch","inputs":[{"name":"_matchId","type":"uint256","internalType":"uint256"}],"outputs":[],"stateMutability":"nonpayable"},{"type":"function","name":"createMatch","inputs":[{"name":"_guess","type":"uint256","internalType":"uint256"}],"outputs":[{"name":"","type":"uint256","internalType":"uint256"}],"stateMutability":"payable"},{"type":"function","name":"emergencyClaim","inputs":[{"name":"_matchId","type":"uint256","internalType":"uint256"}],"outputs":[],"stateMutability":"nonpayable"},{"type":"function","name":"joinMatch","inputs":[{"name":"_matchId","type":"uint256","internalType":"uint256"},{"name":"_guess","type":"uint256","internalType":"uint256"}],"outputs":[],"stateMutability":"payable"},{"type":"function","name":"matches","inputs":[{"name":"","type":"uint256","internalType":"uint256"}],"outputs":[{"name":"id","type":"uint256","internalType":"uint256"},{"name":"creator","type":"address","internalType":"address"},{"name":"opponent","type":"address","internalType":"address"},{"name":"stake","type":"uint256","internalType":"uint256"},{"name":"status","type":"uint8","internalType":"enum Utils.MatchStatus"},{"name":"winner","type":"address","internalType":"address"},{"name":"lastUpdate","type":"uint256","internalType":"uint256"},{"name":"creatorGuess","type":"uint256","internalType":"uint256"},{"name":"opponentGuess","type":"uint256","internalType":"uint256"},{"name":"targetNumber","type":"uint256","internalType":"uint256"}],"stateMutability":"view"},{"type":"function","name":"nextMatchId","inputs":[],"outputs":[{"name":"","type":"uint256","internalType":"uint256"}],"stateMutability":"view"},{"type":"function","name":"officialReferee","inputs":[],"outputs":[{"name":"","type":"address","internalType":"address"}],"stateMutability":"view"},{"type":"function","name":"owner","inputs":[],"outputs":[{"name":"","type":"address","internalType":"address"}],"stateMutability":"view"},{"type":"function","name":"pendingWithdrawals","inputs":[{"name":"","type":"address","internalType":"address"}],"outputs":[{"name":"","type":"uint256","internalType":"uint256"}],"stateMutability":"view"},{"type":"function","name":"setOfficialReferee","inputs":[{"name":"_newReferee","type":"address","internalType":"address"}],"outputs":[],"stateMutability":"nonpayable"},{"type":"function","name":"settleMatch","inputs":[{"name":"_matchId","type":"uint256","internalType":"uint256"},{"name":"_winner","type":"address","internalType":"address"},{"name":"_targetNumber","type":"uint256","internalType":"uint256"}],"outputs":[],"stateMutability":"nonpayable"},{"type":"function","name":"totalFees","inputs":[],"outputs":[{"name":"","type":"uint256","internalType":"uint256"}],"stateMutability":"view"},{"type":"function","name":"withdraw","inputs":[],"outputs":[],"stateMutability":"nonpayable"},{"type":"function","name":"withdrawFees","inputs":[],"outputs":[],"stateMutability":"nonpayable"},{"type":"event","name":"EmergencyClaim","inputs":[{"name":"matchId","type":"uint256","indexed":true,"internalType":"uint256"},{"name":"creator","type":"address","indexed":false,"internalType":"address"},{"name":"opponent","type":"address","indexed":false,"internalType":"address"}],"anonymous":false},{"type":"event","name":"FeesWithdrawn","inputs":[{"name":"owner","type":"address","indexed":true,"internalType":"address"},{"name":"amount","type":"uint256","indexed":false,"internalType":"uint256"}],"anonymous":false},{"type":"event","name":"MatchCancelled","inputs":[{"name":"matchId","type":"uint256","indexed":true,"internalType":"uint256"}],"anonymous":false},{"type":"event","name":"MatchCreated","inputs":[{"name":"matchId","type":"uint256","indexed":true,"internalType":"uint256"},{"name":"creator","type":"address","indexed":false,"internalType":"address"},{"name":"stake","type":"uint256","indexed":false,"internalType":"uint256"},{"name":"guess","type":"uint256","indexed":false,"internalType":"uint256"}],"anonymous":false},{"type":"event","name":"MatchJoined","inputs":[{"name":"matchId","type":"uint256","indexed":true,"internalType":"uint256"},{"name":"opponent","type":"address","indexed":false,"internalType":"address"},{"name":"guess","type":"uint256","indexed":false,"internalType":"uint256"}],"anonymous":false},{"type":"event","name":"MatchSettled","inputs":[{"name":"matchId","type":"uint256","indexed":true,"internalType":"uint256"},{"name":"winner","type":"address","indexed":false,"internalType":"address"},{"name":"prize","type":"uint256","indexed":false,"internalType":"uint256"},{"name":"fee","type":"uint256","indexed":false,"internalType":"uint256"},{"name":"targetNumber","type":"uint256","indexed":false,"internalType":"uint256"}],"anonymous":false},{"type":"event","name":"WinningsWithdrawn","inputs":[{"name":"player","type":"address","indexed":true,"internalType":"address"},{"name":"amount","type":"uint256","indexed":false,"internalType":"uint256"}],"anonymous":false},{"type":"error","name":"CANNOT_JOIN_OWN_MATCH","inputs":[]},{"type":"error","name":"INCORRECT_STAKE","inputs":[]},{"type":"error","name":"INVALID_GUESS","inputs":[]},{"type":"error","name":"INVALID_REFEREE","inputs":[]},{"type":"error","name":"MATCH_NOT_ACTIVE","inputs":[]},{"type":"error","name":"MATCH_NOT_PENDING","inputs":[]},{"type":"error","name":"MUST_BE_GREATER_THAN_ZERO","inputs":[]},{"type":"error","name":"NOTHING_TO_WITHDRAW","inputs":[]},{"type":"error","name":"ONLY_CREATOR_CAN_CANCEL","inputs":[]},{"type":"error","name":"ONLY_OWNER","inputs":[]},{"type":"error","name":"ONLY_PENDING_MATCHES_CAN_BE_CANCELLED","inputs":[]},{"type":"error","name":"ONLY_REFEREE_CAN_SETTLE","inputs":[]},{"type":"error","name":"REENTRANCY","inputs":[]},{"type":"error","name":"REFUND_FAILED","inputs":[]},{"type":"error","name":"TIMEOUT_NOT_REACHED","inputs":[]},{"type":"error","name":"TRANSFER_FAILED","inputs":[]},{"type":"error","name":"WINNER_MUST_BE_PARTICIPANT","inputs":[]}],"bytecode":{"object":"0x608060405234801561000f575f5ffd5b5060405161215338038061215383398181016040528101906100319190610114565b335f5f6101000a81548173ffffffffffffffffffffffffffffffffffffffff021916908373ffffffffffffffffffffffffffffffffffffffff1602179055508060015f6101000a81548173ffffffffffffffffffffffffffffffffffffffff021916908373ffffffffffffffffffffffffffffffffffffffff1602179055505061013f565b5f5ffd5b5f73ffffffffffffffffffffffffffffffffffffffff82169050919050565b5f6100e3826100ba565b9050919050565b6100f3816100d9565b81146100fd575f5ffd5b50565b5f8151905061010e816100ea565b92915050565b5f60208284031215610129576101286100b6565b5b5f61013684828501610100565b91505092915050565b6120078061014c5f395ff3fe6080604052600436106100f6575f3560e01c80638da5cb5b11610089578063c5adf7c911610058578063c5adf7c9146102de578063d02c8cdf14610308578063f3f4370314610330578063f56f48f21461036c576100fd565b80638da5cb5b1461023e578063a221d26714610268578063b67a88f914610284578063bf333f2c146102b4576100fd565b8063476343ee116100c5578063476343ee146101915780634768d4ef146101a757806373174d24146101ec5780638b20046014610216576100fd565b806301504adf146101015780630ac6733b1461012957806313114a9d146101515780633ccfd60b1461017b576100fd565b366100fd57005b5f5ffd5b34801561010c575f5ffd5b5061012760048036038101906101229190611ab7565b610396565b005b348015610134575f5ffd5b5061014f600480360381019061014a9190611b3c565b6106b4565b005b34801561015c575f5ffd5b506101656107e1565b6040516101729190611b76565b60405180910390f35b348015610186575f5ffd5b5061018f6107e7565b005b34801561019c575f5ffd5b506101a5610a0d565b005b3480156101b2575f5ffd5b506101cd60048036038101906101c89190611ab7565b610c82565b6040516101e39a99989796959493929190611c11565b60405180910390f35b3480156101f7575f5ffd5b50610200610d3c565b60405161020d9190611cab565b60405180910390f35b348015610221575f5ffd5b5061023c60048036038101906102379190611cc4565b610d61565b005b348015610249575f5ffd5b50610252611273565b60405161025f9190611cab565b60405180910390f35b610282600480360381019061027d9190611d14565b611297565b005b61029e60048036038101906102999190611ab7565b6114e1565b6040516102ab9190611b76565b60405180910390f35b3480156102bf575f5ffd5b506102c86117aa565b6040516102d59190611b76565b60405180910390f35b3480156102e9575f5ffd5b506102f26117af565b6040516102ff9190611b76565b60405180910390f35b348015610313575f5ffd5b5061032e60048036038101906103299190611ab7565b6117b5565b005b34801561033b575f5ffd5b5061035660048036038101906103519190611b3c565b611a64565b6040516103639190611b76565b60405180910390f35b348015610377575f5ffd5b50610380611a79565b60405161038d9190611b76565b60405180910390f35b60065f9054906101000a900460ff16156103dc576040517fad2ce74900000000000000000000000000000000000000000000000000000000815260040160405180910390fd5b600160065f6101000a81548160ff0219169083151502179055505f60035f8381526020019081526020015f2090506001600481111561041e5761041d611b9e565b5b816004015f9054906101000a900460ff16600481111561044157610440611b9e565b5b14610478576040517f584e106a00000000000000000000000000000000000000000000000000000000815260040160405180910390fd5b62015180816005015461048b9190611d7f565b4210156104c4576040517f359eead100000000000000000000000000000000000000000000000000000000815260040160405180910390fd5b6003816004015f6101000a81548160ff021916908360048111156104eb576104ea611b9e565b5b02179055505f816003015490505f826001015f9054906101000a900473ffffffffffffffffffffffffffffffffffffffff1690505f836002015f9054906101000a900473ffffffffffffffffffffffffffffffffffffffff1690505f8273ffffffffffffffffffffffffffffffffffffffff168460405161056b90611ddf565b5f6040518083038185875af1925050503d805f81146105a5576040519150601f19603f3d011682016040523d82523d5f602084013e6105aa565b606091505b505090505f8273ffffffffffffffffffffffffffffffffffffffff16856040516105d390611ddf565b5f6040518083038185875af1925050503d805f811461060d576040519150601f19603f3d011682016040523d82523d5f602084013e610612565b606091505b50509050811580610621575080155b15610658576040517f9a2dc56100000000000000000000000000000000000000000000000000000000815260040160405180910390fd5b867fd629f7312f086a3ff890e8cdf24511e83fb91e0352ce87e29061b8a0003bcf3d858560405161068a929190611df3565b60405180910390a25050505050505f60065f6101000a81548160ff02191690831515021790555050565b5f5f9054906101000a900473ffffffffffffffffffffffffffffffffffffffff1673ffffffffffffffffffffffffffffffffffffffff163373ffffffffffffffffffffffffffffffffffffffff1614610739576040517fd238ed5900000000000000000000000000000000000000000000000000000000815260040160405180910390fd5b5f73ffffffffffffffffffffffffffffffffffffffff168173ffffffffffffffffffffffffffffffffffffffff160361079e576040517fb318abff00000000000000000000000000000000000000000000000000000000815260040160405180910390fd5b8060015f6101000a81548173ffffffffffffffffffffffffffffffffffffffff021916908373ffffffffffffffffffffffffffffffffffffffff16021790555050565b60045481565b60065f9054906101000a900460ff161561082d576040517fad2ce74900000000000000000000000000000000000000000000000000000000815260040160405180910390fd5b600160065f6101000a81548160ff0219169083151502179055505f60055f3373ffffffffffffffffffffffffffffffffffffffff1673ffffffffffffffffffffffffffffffffffffffff1681526020019081526020015f205490505f81036108c1576040517f6c01d14c00000000000000000000000000000000000000000000000000000000815260040160405180910390fd5b5f60055f3373ffffffffffffffffffffffffffffffffffffffff1673ffffffffffffffffffffffffffffffffffffffff1681526020019081526020015f20819055505f3373ffffffffffffffffffffffffffffffffffffffff168260405161092890611ddf565b5f6040518083038185875af1925050503d805f8114610962576040519150601f19603f3d011682016040523d82523d5f602084013e610967565b606091505b50509050806109a2576040517f3f4ab80e00000000000000000000000000000000000000000000000000000000815260040160405180910390fd5b3373ffffffffffffffffffffffffffffffffffffffff167f24215bbaf0832fa4d6ffef16dee3971d8b714921fef3ad63f793d578983c6dc2836040516109e89190611b76565b60405180910390a250505f60065f6101000a81548160ff021916908315150217905550565b5f5f9054906101000a900473ffffffffffffffffffffffffffffffffffffffff1673ffffffffffffffffffffffffffffffffffffffff163373ffffffffffffffffffffffffffffffffffffffff1614610a92576040517fd238ed5900000000000000000000000000000000000000000000000000000000815260040160405180910390fd5b60065f9054906101000a900460ff1615610ad8576040517fad2ce74900000000000000000000000000000000000000000000000000000000815260040160405180910390fd5b600160065f6101000a81548160ff0219169083151502179055505f60045490505f8103610b31576040517f6c01d14c00000000000000000000000000000000000000000000000000000000815260040160405180910390fd5b5f6004819055505f5f5f9054906101000a900473ffffffffffffffffffffffffffffffffffffffff1673ffffffffffffffffffffffffffffffffffffffff1682604051610b7d90611ddf565b5f6040518083038185875af1925050503d805f8114610bb7576040519150601f19603f3d011682016040523d82523d5f602084013e610bbc565b606091505b5050905080610bf7576040517f3f4ab80e00000000000000000000000000000000000000000000000000000000815260040160405180910390fd5b5f5f9054906101000a900473ffffffffffffffffffffffffffffffffffffffff1673ffffffffffffffffffffffffffffffffffffffff167fc0819c13be868895eb93e40eaceb96de976442fa1d404e5c55f14bb65a8c489a83604051610c5d9190611b76565b60405180910390a250505f60065f6101000a81548160ff021916908315150217905550565b6003602052805f5260405f205f91509050805f015490806001015f9054906101000a900473ffffffffffffffffffffffffffffffffffffffff1690806002015f9054906101000a900473ffffffffffffffffffffffffffffffffffffffff1690806003015490806004015f9054906101000a900460ff16908060040160019054906101000a900473ffffffffffffffffffffffffffffffffffffffff1690806005015490806006015490806007015490806008015490508a565b60015f9054906101000a900473ffffffffffffffffffffffffffffffffffffffff1681565b5f60035f8581526020019081526020015f20905060016004811115610d8957610d88611b9e565b5b816004015f9054906101000a900460ff166004811115610dac57610dab611b9e565b5b14610de3576040517f584e106a00000000000000000000000000000000000000000000000000000000815260040160405180910390fd5b60015f9054906101000a900473ffffffffffffffffffffffffffffffffffffffff1673ffffffffffffffffffffffffffffffffffffffff163373ffffffffffffffffffffffffffffffffffffffff1614610e69576040517fd73e308800000000000000000000000000000000000000000000000000000000815260040160405180910390fd5b5f60028260030154610e7b9190611e1a565b90505f61271060fa83610e8e9190611e1a565b610e989190611e88565b90505f8183610ea79190611eb8565b90508160045f828254610eba9190611d7f565b925050819055505f73ffffffffffffffffffffffffffffffffffffffff168673ffffffffffffffffffffffffffffffffffffffff1603611072576004846004015f6101000a81548160ff02191690836004811115610f1b57610f1a611b9e565b5b02179055508484600801819055504284600501819055505f600282610f409190611e88565b90508060055f876001015f9054906101000a900473ffffffffffffffffffffffffffffffffffffffff1673ffffffffffffffffffffffffffffffffffffffff1673ffffffffffffffffffffffffffffffffffffffff1681526020019081526020015f205f828254610fb19190611d7f565b925050819055508060055f876002015f9054906101000a900473ffffffffffffffffffffffffffffffffffffffff1673ffffffffffffffffffffffffffffffffffffffff1673ffffffffffffffffffffffffffffffffffffffff1681526020019081526020015f205f8282546110279190611d7f565b92505081905550877f75e2cdfe1f471809c44494c67c6ea8a7740906853f2bdb774ecdbb39f5ce08125f84868a6040516110649493929190611eeb565b60405180910390a25061126a565b836001015f9054906101000a900473ffffffffffffffffffffffffffffffffffffffff1673ffffffffffffffffffffffffffffffffffffffff168673ffffffffffffffffffffffffffffffffffffffff16141580156111205750836002015f9054906101000a900473ffffffffffffffffffffffffffffffffffffffff1673ffffffffffffffffffffffffffffffffffffffff168673ffffffffffffffffffffffffffffffffffffffff1614155b15611157576040517fadfb29f300000000000000000000000000000000000000000000000000000000815260040160405180910390fd5b6002846004015f6101000a81548160ff0219169083600481111561117e5761117d611b9e565b5b0217905550858460040160016101000a81548173ffffffffffffffffffffffffffffffffffffffff021916908373ffffffffffffffffffffffffffffffffffffffff1602179055508484600801819055504284600501819055508060055f8873ffffffffffffffffffffffffffffffffffffffff1673ffffffffffffffffffffffffffffffffffffffff1681526020019081526020015f205f8282546112249190611d7f565b92505081905550867f75e2cdfe1f471809c44494c67c6ea8a7740906853f2bdb774ecdbb39f5ce0812878385896040516112619493929190611eeb565b60405180910390a25b50505050505050565b5f5f9054906101000a900473ffffffffffffffffffffffffffffffffffffffff1681565b5f60035f8481526020019081526020015f2090505f60048111156112be576112bd611b9e565b5b816004015f9054906101000a900460ff1660048111156112e1576112e0611b9e565b5b14611318576040517f732bcf8100000000000000000000000000000000000000000000000000000000815260040160405180910390fd5b80600301543414611355576040517ff7e8b23f00000000000000000000000000000000000000000000000000000000815260040160405180910390fd5b806001015f9054906101000a900473ffffffffffffffffffffffffffffffffffffffff1673ffffffffffffffffffffffffffffffffffffffff163373ffffffffffffffffffffffffffffffffffffffff16036113dd576040517fffd7d13d00000000000000000000000000000000000000000000000000000000815260040160405180910390fd5b5f8214806113eb5750606482115b15611422576040517ff9cbc2db00000000000000000000000000000000000000000000000000000000815260040160405180910390fd5b33816002015f6101000a81548173ffffffffffffffffffffffffffffffffffffffff021916908373ffffffffffffffffffffffffffffffffffffffff1602179055508181600701819055506001816004015f6101000a81548160ff0219169083600481111561149457611493611b9e565b5b0217905550428160050181905550827fbac6c1f65fa2e0f78a4e7dead8b72a284ff81ba7c397e22f9cf0e7ed2f7efd1a33846040516114d4929190611f2e565b60405180910390a2505050565b5f5f340361151b576040517fd12c471300000000000000000000000000000000000000000000000000000000815260040160405180910390fd5b5f8214806115295750606482115b15611560576040517ff9cbc2db00000000000000000000000000000000000000000000000000000000815260040160405180910390fd5b5f60025f81548092919061157390611f55565b9190505590506040518061014001604052808281526020013373ffffffffffffffffffffffffffffffffffffffff1681526020015f73ffffffffffffffffffffffffffffffffffffffff1681526020013481526020015f60048111156115dc576115db611b9e565b5b81526020015f73ffffffffffffffffffffffffffffffffffffffff1681526020014281526020018481526020015f81526020015f81525060035f8381526020019081526020015f205f820151815f01556020820151816001015f6101000a81548173ffffffffffffffffffffffffffffffffffffffff021916908373ffffffffffffffffffffffffffffffffffffffff1602179055506040820151816002015f6101000a81548173ffffffffffffffffffffffffffffffffffffffff021916908373ffffffffffffffffffffffffffffffffffffffff160217905550606082015181600301556080820151816004015f6101000a81548160ff021916908360048111156116ec576116eb611b9e565b5b021790555060a08201518160040160016101000a81548173ffffffffffffffffffffffffffffffffffffffff021916908373ffffffffffffffffffffffffffffffffffffffff16021790555060c0820151816005015560e0820151816006015561010082015181600701556101208201518160080155905050807fab8c9f12c79b09660cc1e067055451fdf910f3c9bf0349316c5bd5dd14619acc33348660405161179993929190611f9c565b60405180910390a280915050919050565b60fa81565b60025481565b60065f9054906101000a900460ff16156117fb576040517fad2ce74900000000000000000000000000000000000000000000000000000000815260040160405180910390fd5b600160065f6101000a81548160ff0219169083151502179055505f60035f8381526020019081526020015f2090505f600481111561183c5761183b611b9e565b5b816004015f9054906101000a900460ff16600481111561185f5761185e611b9e565b5b14611896576040517f71bbe61e00000000000000000000000000000000000000000000000000000000815260040160405180910390fd5b806001015f9054906101000a900473ffffffffffffffffffffffffffffffffffffffff1673ffffffffffffffffffffffffffffffffffffffff163373ffffffffffffffffffffffffffffffffffffffff161461191e576040517fea5a01e400000000000000000000000000000000000000000000000000000000815260040160405180910390fd5b6003816004015f6101000a81548160ff0219169083600481111561194557611944611b9e565b5b02179055504281600501819055505f816001015f9054906101000a900473ffffffffffffffffffffffffffffffffffffffff1673ffffffffffffffffffffffffffffffffffffffff16826003015460405161199f90611ddf565b5f6040518083038185875af1925050503d805f81146119d9576040519150601f19603f3d011682016040523d82523d5f602084013e6119de565b606091505b5050905080611a19576040517f9a2dc56100000000000000000000000000000000000000000000000000000000815260040160405180910390fd5b827f700135b4fe8746e2d2c85a9baa43c62887740aebfeb3a439f71a083fe5d5675960405160405180910390a250505f60065f6101000a81548160ff02191690831515021790555050565b6005602052805f5260405f205f915090505481565b6201518081565b5f5ffd5b5f819050919050565b611a9681611a84565b8114611aa0575f5ffd5b50565b5f81359050611ab181611a8d565b92915050565b5f60208284031215611acc57611acb611a80565b5b5f611ad984828501611aa3565b91505092915050565b5f73ffffffffffffffffffffffffffffffffffffffff82169050919050565b5f611b0b82611ae2565b9050919050565b611b1b81611b01565b8114611b25575f5ffd5b50565b5f81359050611b3681611b12565b92915050565b5f60208284031215611b5157611b50611a80565b5b5f611b5e84828501611b28565b91505092915050565b611b7081611a84565b82525050565b5f602082019050611b895f830184611b67565b92915050565b611b9881611b01565b82525050565b7f4e487b71000000000000000000000000000000000000000000000000000000005f52602160045260245ffd5b60058110611bdc57611bdb611b9e565b5b50565b5f819050611bec82611bcb565b919050565b5f611bfb82611bdf565b9050919050565b611c0b81611bf1565b82525050565b5f61014082019050611c255f83018d611b67565b611c32602083018c611b8f565b611c3f604083018b611b8f565b611c4c606083018a611b67565b611c596080830189611c02565b611c6660a0830188611b8f565b611c7360c0830187611b67565b611c8060e0830186611b67565b611c8e610100830185611b67565b611c9c610120830184611b67565b9b9a5050505050505050505050565b5f602082019050611cbe5f830184611b8f565b92915050565b5f5f5f60608486031215611cdb57611cda611a80565b5b5f611ce886828701611aa3565b9350506020611cf986828701611b28565b9250506040611d0a86828701611aa3565b9150509250925092565b5f5f60408385031215611d2a57611d29611a80565b5b5f611d3785828601611aa3565b9250506020611d4885828601611aa3565b9150509250929050565b7f4e487b71000000000000000000000000000000000000000000000000000000005f52601160045260245ffd5b5f611d8982611a84565b9150611d9483611a84565b9250828201905080821115611dac57611dab611d52565b5b92915050565b5f81905092915050565b50565b5f611dca5f83611db2565b9150611dd582611dbc565b5f82019050919050565b5f611de982611dbf565b9150819050919050565b5f604082019050611e065f830185611b8f565b611e136020830184611b8f565b9392505050565b5f611e2482611a84565b9150611e2f83611a84565b9250828202611e3d81611a84565b91508282048414831517611e5457611e53611d52565b5b5092915050565b7f4e487b71000000000000000000000000000000000000000000000000000000005f52601260045260245ffd5b5f611e9282611a84565b9150611e9d83611a84565b925082611ead57611eac611e5b565b5b828204905092915050565b5f611ec282611a84565b9150611ecd83611a84565b9250828203905081811115611ee557611ee4611d52565b5b92915050565b5f608082019050611efe5f830187611b8f565b611f0b6020830186611b67565b611f186040830185611b67565b611f256060830184611b67565b95945050505050565b5f604082019050611f415f830185611b8f565b611f4e6020830184611b67565b9392505050565b5f611f5f82611a84565b91507fffffffffffffffffffffffffffffffffffffffffffffffffffffffffffffffff8203611f9157611f90611d52565b5b600182019050919050565b5f606082019050611faf5f830186611b8f565b611fbc6020830185611b67565b611fc96040830184611b67565b94935050505056fea2646970667358221220e86a61f8cbc628fc653e7f154f0d1a81f74e3fd471f2e9085a2099d6cc1e8c5164736f6c63430008210033","linkReferences":{}},"methodIdentifiers":{"FEE_BPS()":"bf333f2c","TIMEOUT()":"f56f48f2","cancelMatch(uint256)":"d02c8cdf","createMatch(uint256)":"b67a88f9","emergencyClaim(uint256)":"01504adf","joinMatch(uint256,uint256)":"a221d267","matches(uint256)":"4768d4ef","nextMatchId()":"c5adf7c9","officialReferee()":"73174d24","owner()":"8da5cb5b","pendingWithdrawals(address)":"f3f43703","setOfficialReferee(address)":"0ac6733b","settleMatch(uint256,address,uint256)":"8b200460","totalFees()":"13114a9d","withdraw()":"3ccfd60b","withdrawFees()":"476343ee"},"id":21}