{"abi":[{"type":"function","name":"getName","inputs":[{"name":"_user","type":"address","internalType":"address"}],"outputs":[{"name":"","type":"string","internalType":"string"}],"stateMutability":"view"},{"type":"function","name":"nameToAddress","inputs":[{"name":"","type":"string","internalType":"string"}],"outputs":[{"name":"","type":"address","internalType":"address"}],"stateMutability":"view"},{"type":"function","name":"names","inputs":[{"name":"","type":"address","internalType":"address"}],"outputs":[{"name":"","type":"string","internalType":"string"}],"stateMutability":"view"},{"type":"function","name":"setName","inputs":[{"name":"_name","type":"string","internalType":"string"}],"outputs":[],"stateMutability":"nonpayable"},{"type":"event","name":"NameSet","inputs":[{"name":"user","type":"address","indexed":true,"internalType":"address"},{"name":"name","type":"string","indexed":false,"internalType":"string"}],"anonymous":false},{"type":"error","name":"NAME_ALREADY_TAKEN","inputs":[]},{"type":"error","name":"NAME_TOO_LONG","inputs":[]},{"type":"error","name":"NAME_TOO_SHORT","inputs":[]}],"bytecode":{"object":"0x6080604052348015600e575f5ffd5b50610d828061001c5f395ff3fe608060405234801561000f575f5ffd5b506004361061004a575f3560e01c806308d88aad1461004e5780635cf3d3461461007e5780635fd4b08a146100ae578063c47f0027146100de575b5f5ffd5b61006860048036038101906100639190610768565b6100fa565b60405161007591906107ee565b60405180910390f35b61009860048036038101906100939190610831565b610142565b6040516100a591906108bc565b60405180910390f35b6100c860048036038101906100c39190610831565b6101dc565b6040516100d591906108bc565b60405180910390f35b6100f860048036038101906100f39190610939565b6102a8565b005b6001818051602081018201805184825260208301602085012081835280955050505050505f915054906101000a900473ffffffffffffffffffffffffffffffffffffffff1681565b5f602052805f5260405f205f91509050805461015d906109b1565b80601f0160208091040260200160405190810160405280929190818152602001828054610189906109b1565b80156101d45780601f106101ab576101008083540402835291602001916101d4565b820191905f5260205f20905b8154815290600101906020018083116101b757829003601f168201915b505050505081565b60605f5f8373ffffffffffffffffffffffffffffffffffffffff1673ffffffffffffffffffffffffffffffffffffffff1681526020019081526020015f208054610225906109b1565b80601f0160208091040260200160405190810160405280929190818152602001828054610251906109b1565b801561029c5780601f106102735761010080835404028352916020019161029c565b820191905f5260205f20905b81548152906001019060200180831161027f57829003601f168201915b50505050509050919050565b5f82828080601f0160208091040260200160405190810160405280939291908181526020018383808284375f81840152601f19601f82011690508083019250505050505050905060038151101561032b576040517f1358813d00000000000000000000000000000000000000000000000000000000815260040160405180910390fd5b601481511115610367576040517f3075381f00000000000000000000000000000000000000000000000000000000815260040160405180910390fd5b5f73ffffffffffffffffffffffffffffffffffffffff1660018484604051610390929190610a0f565b90815260200160405180910390205f9054906101000a900473ffffffffffffffffffffffffffffffffffffffff1673ffffffffffffffffffffffffffffffffffffffff161461040b576040517f90182b4c00000000000000000000000000000000000000000000000000000000815260040160405180910390fd5b5f5f5f3373ffffffffffffffffffffffffffffffffffffffff1673ffffffffffffffffffffffffffffffffffffffff1681526020019081526020015f208054610453906109b1565b80601f016020809104026020016040519081016040528092919081815260200182805461047f906109b1565b80156104ca5780601f106104a1576101008083540402835291602001916104ca565b820191905f5260205f20905b8154815290600101906020018083116104ad57829003601f168201915b505050505090505f8151111561051b576001816040516104ea9190610a57565b90815260200160405180910390205f6101000a81549073ffffffffffffffffffffffffffffffffffffffff02191690555b83835f5f3373ffffffffffffffffffffffffffffffffffffffff1673ffffffffffffffffffffffffffffffffffffffff1681526020019081526020015f209182610566929190610c31565b50336001858560405161057a929190610a0f565b90815260200160405180910390205f6101000a81548173ffffffffffffffffffffffffffffffffffffffff021916908373ffffffffffffffffffffffffffffffffffffffff1602179055503373ffffffffffffffffffffffffffffffffffffffff167fa4cea56cd77acc2291276688ddfb9e3144c5dc056ada99eed3cd0460fbeda175858560405161060d929190610d2a565b60405180910390a250505050565b5f604051905090565b5f5ffd5b5f5ffd5b5f5ffd5b5f5ffd5b5f601f19601f8301169050919050565b7f4e487b71000000000000000000000000000000000000000000000000000000005f52604160045260245ffd5b61067a82610634565b810181811067ffffffffffffffff8211171561069957610698610644565b5b80604052505050565b5f6106ab61061b565b90506106b78282610671565b919050565b5f67ffffffffffffffff8211156106d6576106d5610644565b5b6106df82610634565b9050602081019050919050565b828183375f83830152505050565b5f61070c610707846106bc565b6106a2565b90508281526020810184848401111561072857610727610630565b5b6107338482856106ec565b509392505050565b5f82601f83011261074f5761074e61062c565b5b813561075f8482602086016106fa565b91505092915050565b5f6020828403121561077d5761077c610624565b5b5f82013567ffffffffffffffff81111561079a57610799610628565b5b6107a68482850161073b565b91505092915050565b5f73ffffffffffffffffffffffffffffffffffffffff82169050919050565b5f6107d8826107af565b9050919050565b6107e8816107ce565b82525050565b5f6020820190506108015f8301846107df565b92915050565b610810816107ce565b811461081a575f5ffd5b50565b5f8135905061082b81610807565b92915050565b5f6020828403121561084657610845610624565b5b5f6108538482850161081d565b91505092915050565b5f81519050919050565b5f82825260208201905092915050565b8281835e5f83830152505050565b5f61088e8261085c565b6108988185610866565b93506108a8818560208601610876565b6108b181610634565b840191505092915050565b5f6020820190508181035f8301526108d48184610884565b905092915050565b5f5ffd5b5f5ffd5b5f5f83601f8401126108f9576108f861062c565b5b8235905067ffffffffffffffff811115610916576109156108dc565b5b602083019150836001820283011115610932576109316108e0565b5b9250929050565b5f5f6020838503121561094f5761094e610624565b5b5f83013567ffffffffffffffff81111561096c5761096b610628565b5b610978858286016108e4565b92509250509250929050565b7f4e487b71000000000000000000000000000000000000000000000000000000005f52602260045260245ffd5b5f60028204905060018216806109c857607f821691505b6020821081036109db576109da610984565b5b50919050565b5f81905092915050565b5f6109f683856109e1565b9350610a038385846106ec565b82840190509392505050565b5f610a1b8284866109eb565b91508190509392505050565b5f610a318261085c565b610a3b81856109e1565b9350610a4b818560208601610876565b80840191505092915050565b5f610a628284610a27565b915081905092915050565b5f82905092915050565b5f819050815f5260205f209050919050565b5f6020601f8301049050919050565b5f82821b905092915050565b5f60088302610ad37fffffffffffffffffffffffffffffffffffffffffffffffffffffffffffffffff82610a98565b610add8683610a98565b95508019841693508086168417925050509392505050565b5f819050919050565b5f819050919050565b5f610b21610b1c610b1784610af5565b610afe565b610af5565b9050919050565b5f819050919050565b610b3a83610b07565b610b4e610b4682610b28565b848454610aa4565b825550505050565b5f5f905090565b610b65610b56565b610b70818484610b31565b505050565b5f5b82811015610b9657610b8b5f828401610b5d565b600181019050610b77565b505050565b601f821115610be95782821115610be857610bb581610a77565b610bbe83610a89565b610bc785610a89565b6020861015610bd4575f90505b808301610be382840382610b75565b505050505b5b505050565b5f82821c905092915050565b5f610c095f1984600802610bee565b1980831691505092915050565b5f610c218383610bfa565b9150826002028217905092915050565b610c3b8383610a6d565b67ffffffffffffffff811115610c5457610c53610644565b5b610c5e82546109b1565b610c69828285610b9b565b5f601f831160018114610c96575f8415610c84578287013590505b610c8e8582610c16565b865550610cf5565b601f198416610ca486610a77565b5f5b82811015610ccb57848901358255600182019150602085019450602081019050610ca6565b86831015610ce85784890135610ce4601f891682610bfa565b8355505b6001600288020188555050505b50505050505050565b5f610d098385610866565b9350610d168385846106ec565b610d1f83610634565b840190509392505050565b5f6020820190508181035f830152610d43818486610cfe565b9050939250505056fea26469706673582212203d8453f95c3dbb6ca379b5cb1d8feda11373653262e585ce6b046641ee62a24164736f6c63430008210033","linkReferences":{}},"methodIdentifiers":{"getName(address)":"5fd4b08a","nameToAddress(string)":"08d88aad","names(address)":"5cf3d346","setName(string)":"c47f0027"},"id":22}